:100000000C9462000C948A000C948A000C948A0070
:100010000C948A000C948A000C948A000C948A0038
:100020000C948A000C948A000C948A000C948A0028
:100030000C948A000C948A000C948A000C948A0018
:100040000C946B020C948A000C948A000C948A0025
:100050000C948A000C948A000C948A000C948A00F8
:100060000C948A000C948A000000000024002700F1
:100070002A0000000000250028002B0000000000DE
:1000800023002600290004040404040404040202DA
:100090000202020203030303030301020408102007
:1000A0004080010204081020010204081020000012
:1000B0000007000201000003040600000000000029
:1000C0000000410211241FBECFEFD8E0DEBFCDBF3C
:1000D00011E0A0E0B1E0E6E7F7E002C005900D9284
:1000E000A231B107D9F711E0A2E1B1E001C01D9240
:1000F000AE32B107E1F710E0C4ECD0E004C02297C3
:10010000FE010E94B503C23CD107C9F70E946602F6
:100110000C94B9030C9400000F931F938C01FC0105
:10012000848160E00E94270381E090E00E94BF028A
:10013000F801848161E00E94270381E090E00E9441
:10014000BF02F801848160E00E94270384E690E00A
:100150000E94BF021F910F910895CF92DF92EF92FC
:10016000FF920F931F93CF93DF93D82EC92E282F82
:10017000392FC9018C01C0E0D0E0E62EFF24F80140
:10018000858161E00E940703B7010C2E02C07595BE
:1001900067950A94E2F76170F80185810E94270350
:1001A00021960F5F1F4FC830D10549F78D2D9C2D2B
:1001B0000E948C00DF91CF911F910F91FF90EF90E3
:1001C000DF90CF900895CF92DF92EF92FF920F933E
:1001D0001F93CF93DF93D82EC92E282F392FC90113
:1001E0008C01C0E0D0E0E62EFF24F801858161E0BB
:1001F0000E940703B7010C2E02C0759567950A94FB
:10020000E2F76170F80185810E94270321960F5F54
:100210001F4FC430D10549F78D2D9C2D0E948C00B5
:10022000DF91CF911F910F91FF90EF90DF90CF90D2
:1002300008951F93CF93DF93EC01162F8A81642FCB
:100240000E9427038B8160E00E9427038D8584FF35
:1002500005C0CE01612F0E94AD000EC0612F70E07D
:1002600084E0759567958A95E1F7CE010E94E300D9
:10027000CE01612F0E94E300DF91CF911F9108957D
:1002800041E00E941901089540E00E94190108957B
:10029000FC016685862F846086876C60CF010E9492
:1002A0004401089561E00E94440180ED97E00E94BE
:1002B000BF020895CF93DF93EC01423018F08D8593
:1002C00088608D87498B1A8A222329F0413019F4DE
:1002D0008D8584608D8780E593EC0E94BF028A81C2
:1002E00060E00E9427038C8160E00E9427038B81DD
:1002F00060E00E9427036D8564FD1DC0CE0163E0B0
:100300000E94E30084E991E10E94BF02CE0163E014
:100310000E94E30084E991E10E94BF02CE0163E004
:100320000E94E30086E990E00E94BF02CE0162E0F5
:100330000E94E30016C06062CE010E94440184E97D
:1003400091E10E94BF026D856062CE010E9444016E
:1003500086E990E00E94BF026D856062CE010E9436
:1003600044016D856062CE010E94440184E08E8765
:10037000CE010E944801CE010E94520182E08F8787
:10038000CE0166E00E944401DF91CF9108956F9203
:100390007F928F92AF92CF92EF920F931F93DF9342
:1003A000CF93CDB7DEB73C01162F842FF3014283E4
:1003B00023830483E582C682A78280869D859187F8
:1003C0009E8592879F8593879889948761E00E9494
:1003D0000703F301838161E00E940703F301848135
:1003E00061E00E940703112319F0F301158603C091
:1003F00080E1F3018587C30160E141E020E00E94D4
:100400005A01CF91DF911F910F91EF90CF90AF9054
:100410008F907F906F9008958F92AF92CF92EF92CE
:100420000F931F93CF93DF93DC01362F542F722F3E
:10043000102FAE2C8C2C8BE091E011969C938E9318
:1004400000D000D0EDB7FEB73196CDB7DEB7198238
:10045000118212821382CD0161E0432F2FEF052F0D
:10046000E72EC12E0E94C7010F900F900F900F90A2
:10047000DF91CF911F910F91EF90CF90AF908F9020
:100480000895CF92EF920F9382E191E06CE04BE000
:1004900025E004E053E0E52E32E0C32E0E940C027A
:1004A0000F91EF90CF9008950F931F9302E111E009
:1004B000C80162E040E120E00E945A01C80160E00A
:1004C00071E00E94AB031F910F9108950E94CD022D
:1004D0000E945402FFCF1F920F920FB60F92112469
:1004E0002F933F934F935F936F937F938F939F933C
:1004F000AF93BF932091290130912A0140912B01A4
:1005000050912C0170912D01DA01C9010296A11DB3
:10051000B11D672F6A5F6D3730F06D57DA01C90181
:100520000396A11DB11D60932D0180932901909325
:100530002A01A0932B01B0932C0180912501909169
:100540002601A0912701B09128010196A11DB11D9E
:100550008093250190932601A0932701B093280151
:10056000BF91AF919F918F917F916F915F914F91CB
:100570003F912F910F900FBE0F901F9018950197EC
:1005800059F0019749F0FC01EE0FFF1F31978FB72B
:10059000F8943197F1F78FBF0895789484B582600D
:1005A00084BD84B5816084BD85B5826085BD85B517
:1005B000816085BDEEE6F0E0808181608083E1E8C6
:1005C000F0E0808182608083808181608083E0E8C8
:1005D000F0E0808181608083E1EBF0E080818460E5
:1005E0008083E0EBF0E0808181608083EAE7F0E0E7
:1005F000808184608083808182608083808181604B
:1006000080838081806880831092C1000895282FA4
:1006100030E0C90186569F4FFC0194912A573F4F05
:10062000F9018491882391F0E82FF0E0EE0FFF1F8D
:10063000E859FF4FA591B491662329F48C919095C8
:1006400089238C9308958C91892B8C930895482F3E
:1006500050E0CA0182559F4FFC012491CA01865681
:100660009F4FFC0194914A575F4FFA013491332315
:10067000D1F1222331F1233021F4809180008F7752
:1006800005C0243031F4809180008F7D80938000FC
:1006900018C0213019F484B58F7704C0223021F4BA
:1006A00084B58F7D84BD0DC0263021F48091B000CB
:1006B0008F7705C0273029F48091B0008F7D80931B
:1006C000B000E32FF0E0EE0FFF1FEE58FF4FA591B3
:1006D000B491662329F48C91909589238C93089585
:1006E0008C91892B8C9308950F931F93CF93DF9355
:1006F0008C01EB0109C02196D801ED91FC9101908C
:10070000F081E02DC801099568816623A1F7DF918A
:10071000CF911F910F910895EF92FF920F931F9326
:10072000CF93DF938C017B01EA010CC0D7016D915F
:100730007D01D801ED91FC910190F081E02DC8017F
:1007400009952197209791F7DF91CF911F910F91F4
:10075000FF90EF900895DC01ED91FC910280F38110
:10076000E02D09950895EE0FFF1F0590F491E02DFF
:060770000994F894FFCF8C
:100776004841492121210000000000400174038CFA
:0207860003006E
:00000001FF
