:100000000C94EC010C94CD0D0C94FA0D0C9414028C
:100010000C9414020C9414020C9414020C94140208
:100020000C9414020C9414020C9414020C941402F8
:100030000C9414020C9414020C9414020C941402E8
:100040000C94270E0C9414020C945C0F0C94140264
:100050000C9414020C9414020C9414020C941402C8
:100060000C9414020C9414020A417661696C61626A
:100070006C6520636F6D6D616E64733A0A203C6E2F
:100080006E3E2069202D20736574206E6F6465209C
:10009000494420287374616E64617264206E6F64D9
:1000A00065206964732061726520312E2E323629F5
:1000B0000A20286F7220656E74657220616E20754B
:1000C0007070657263617365202741272E2E275A51
:1000D0002720746F20736574206964290A203C6EA0
:1000E0003E2062202D20736574204D487A20626185
:1000F0006E64202834203D203433332C2038203DBA
:10010000203836382C2039203D20393135290A2035
:100110003C6E6E6E3E2067202D20736574206E65E8
:1001200074776F726B2067726F7570202852464D1E
:100130003132206F6E6C7920616C6C6F7773203276
:100140003132290A203C6E3E2063202D20736574D5
:1001500020636F6C6C656374206D6F64652028612B
:100160006476616E6365642C206E6F726D616C6C79
:10017000792030290A2074202D2062726F61646317
:10018000617374206D61782D73697A65207465736D
:1001900074207061636B65742C20776974682061CA
:1001A000636B0A202E2E2E2C3C6E6E3E2061202D7D
:1001B0002073656E642064617461207061636B6597
:1001C0007420746F206E6F6465203C6E6E3E2C2030
:1001D000776974682061636B0A202E2E2E2C3C6E8A
:1001E0006E3E2073202D2073656E642064617461FF
:1001F000207061636B657420746F206E6F6465207E
:100200003C6E6E3E2C206E6F2061636B0A203C6E4C
:100210003E206C202D207475726E206163746976A7
:10022000697479204C4544206F6E20504231206F14
:100230006E206F72206F66660A52656D6F7465205E
:10024000636F6E74726F6C20636F6D6D616E64733B
:100250003A0A203C686368693E2C3C68636C6F3ED8
:100260002C3C616464723E2C3C636D643E206620CD
:100270002D204653323020636F6D6D616E642028EF
:10028000383638204D487A290A203C616464723E31
:100290002C3C6465763E2C3C6F6E3E206B202D20FE
:1002A0004B414B5520636F6D6D616E642028343374
:1002B00033204D487A290A00466C617368207374B4
:1002C0006F7261676520284A65654C696E6B2076A0
:1002D00032206F6E6C79293A0A2064202D206475D3
:1002E0006D7020616C6C206C6F67206D61726B6546
:1002F00072730A203C73683E2C3C736C3E2C3C7439
:10030000333E2C3C74323E2C3C74313E2C3C7430D9
:100310003E2072202D207265706C61792066726FAC
:100320006D20737065636966696564206D61726BC9
:1003300065720A203132332C3C6268693E2C3C6283
:100340006C6F3E2065202D20657261736520344BF3
:1003500020626C6F636B0A2031322C33342077209B
:100360002D207769706520656E7469726520666CF2
:10037000617368206D656D6F72790A00000000007E
:10038000240027002A0000000000250028002B0080
:1003900000000000230026002900040404040404D3
:1003A0000404020202020202030303030303010224
:1003B00004081020408001020408102001020408F3
:1003C00010200000000700020100000304060000E6
:1003D000000000000000E11011241FBECFEFD8E0A4
:1003E000DEBFCDBF11E0A0E0B1E0E8E3F6E202C07D
:1003F00005900D92A03BB107D9F714E0A0EBB1E056
:1004000001C01D92A435B107E1F713E0C8EDD3E0B8
:1004100004C02297FE010E941613C63DD107C9F7FA
:100420000E94900D0C941A130C940000FB01DC0147
:1004300002C001900D9241505040D8F70895FB0141
:10044000DC010D900020E9F7119701900D9200203A
:10045000E1F70895FB01DC0101900D920020E1F726
:100460000895EF92FF920F931F938C018AE060E052
:100470000E940F0F1EBD0DB407FEFDCF8EB50EBD41
:100480000DB407FEFDCFEEB4182F00E08AE061E066
:100490000E940F0FFF24E02AF12AC7011F910F913C
:1004A000FF90EF900895882319F48DE092E802C040
:1004B0008DE392E80E943102089580E090E00E946E
:1004C00031028091FF01853009F041C080E090EB5E
:1004D0000E94310290910302E92FF0E0EE54FE4FAA
:1004E00080839F5F909303022091B0013091B1010E
:1004F0002827822F82958227082E8695869580252B
:10050000082E869580258770022E232F86950794C6
:100510008795302D282706948795302528273093F6
:10052000B1012093B0018091B3012091030290E0CA
:10053000039630E0821793072CF0809103028634F3
:1005400008F46DC08DE092E80E9431020895809118
:10055000FF0187FF2EC0E091B3018091FF018F5F03
:100560008093FF018150EE5FE80FF0E0EE54FE4F04
:10057000E0818091B0019091B1018E27282F2295C2
:100580002827022E269526952025022E2695202501
:100590002770082E892F269507942795902D82275E
:1005A00006942795902582279093B1018093B001FE
:1005B00030C08091FF018F5F8093FF0181508330B5
:1005C00019F184302CF4882399F0813009F516C094
:1005D000893019F08A30E1F402C0EDE21AC0E091EE
:1005E00000029091B3018EEF891B8093FF0111C02F
:1005F0008091B0019091B101E82F0BC08091B001C2
:100600009091B101E92F05C08DE092E80E9431027E
:10061000EAEA8E2F90E0805098440E9431020895BB
:10062000982F86FD05C0907E8091FE018F71980FF6
:100630009093B2014093B30124EB31E0C90150E043
:100640000E941602E091FC01F091FD01309711F03B
:1006500081E0099580910102909102029093B1018D
:100660008093B00186E08093FF018DE392E80E94C1
:10067000310208958091FF01853001F580910302D8
:100680008823E1F4F89480E090E00E94310290FF2A
:1006900003C0789480E008958DE092E80E943102D2
:1006A00080E090E00E94310280E090EB0E943102F5
:1006B00084E08093FF01789481E0089580E00895BC
:1006C0008091FF018530D1F58091B3012091030223
:1006D00090E0039630E08217930724F080910302A4
:1006E000863460F184E08093FF018091B30183340C
:1006F00030F081E090E09093B1018093B00180915F
:10070000B20186FF0CC02091B2018091FE0190E001
:1007100030E0822793278F719070892B79F4809134
:10072000B0019091B101892B31F5E091FC01F0917C
:10073000FD01309701F180E0099529C08091FF010A
:10074000843011F080E008951092B3018091B301DC
:100750008093030280910102909102029093B10173
:100760008093B00185E08093FF018DED92E80E94B7
:10077000310280E008958FEF9FEFAFEFBFEF8093DE
:10078000F8019093F901A093FA01B093FB0181E085
:1007900008950F931F93062F8093FE01409300024C
:1007A0008AE061E00E940F0F8AE061E00E94EF0E94
:1007B0008BE061E00E94EF0E8CE060E00E94EF0EA3
:1007C0008DE061E00E94EF0E81E58CBD8DB581600A
:1007D0008DBD82E060E00E94EF0E82E061E00E9449
:1007E0000F0F10E074E0000F111F7A95E1F7C801B8
:1007F000876C90680E9431028DE092E80E9431027D
:1008000080E496EA0E94310286E096EC0E94310272
:1008100082EA94E90E9431028CEA92EC0E94310251
:1008200083E89AEC0E9431028091000290E09E6C75
:100830000E94310283E894EC0E94310280E598E93D
:100840000E94310287E79CEC0E94310280E090EE2A
:100850000E94310280E098EC0E94310289E490EC21
:100860000E943102209100028FEF9FEF8227282FF4
:1008700022952827022E269526952025022E26959C
:1008800020252770082E892F269507942795902DCF
:1008900082270694279590258227909302028093C1
:1008A000010284E08093FF018091FE0190E08F714E
:1008B0009070892B41F080E06DE572E040E050E0FF
:1008C0000E94970D03C080E00E94BA0D1F910F9106
:1008D0000895FF920F931F93CF93DF934FEF5FEF36
:1008E00020E230E0F999FECF32BD21BDF89A80B503
:1008F0004827842F82958427082E86958695802503
:10090000082E869580258770042E452F869507949E
:100910008795502D482706948795502548272F5FA7
:100920003F4F20343105F1F6452B11F080E02EC009
:1009300000E0FF2410E0C0E2D0E0F999FECFD2BD84
:10094000C1BDF89A60B5112311F4062F0AC0113009
:1009500011F4F62E06C0662341F081E494E00E9473
:1009600052111F5F21961E3141F781E494E00E94ED
:100970006A11602F70E0E6E075956795EA95E1F7FA
:10098000802F4F2D0E94C903802F8F71DF91CF914F
:100990001F910F91FF900895982F25E0F8942898C3
:1009A0002EBD0DB407FEFDCF8EB51EBC0DB407FEE7
:1009B000FDCF8EB5289A789480FDF0CFF8942898D2
:1009C0009EBD0DB407FEFDCF8EB508951F93182F61
:1009D00086E00E94CC04289A7894812F0E94CC044F
:1009E0001F910895DF92EF92FF920F931F93CF9381
:1009F000DF938C01D62E7A01E90183E00E94CC04BA
:100A00001EBD0DB407FEFDCF8EB50EBD0DB407FEA5
:100A1000FDCF8EB5DEBC0DB407FEFDCF8EB520E058
:100A200030E00BC01EBC0DB407FEFDCF8EB5F70144
:100A3000E20FF11D80832F5F3F4F2C173D0790F38E
:100A4000289A7894DF91CF911F910F91FF90EF90AA
:100A5000DF9008950F931F93CF93DF938C01EB01E9
:100A600082E00E94E6041EBD0DB407FEFDCF8EB5E8
:100A70000EBD0DB407FEFDCF8EB51EBC0DB407FE36
:100A8000FDCF8EB520E030E0FE01E20FF11D808148
:100A90008EBD0DB407FEFDCF8EB52F5F3F4F81E0B9
:100AA0002030380789F7289A7894DF91CF911F91E9
:100AB0000F91089580E090E060E070E040E050E049
:100AC00020E030E00E94F20408951F93CF93DF935B
:100AD000EC01FE0121961491112369F01A3029F4DA
:100AE00081E494E06DE00E945A1181E494E0612F6A
:100AF0000E945A11EECFDF91CF911F91089588E6A1
:100B000090E00E9465058091AD029091AE02892B24
:100B100021F088EB92E00E94650581E494E060E0BA
:100B200071E00E9491110E9469040895EF92FF9272
:100B30000F931F93CF93DF938C016830A9F49C012E
:100B4000220F331F082E82958025082E86958695C4
:100B50008025082F10E00F5F1F4F15950795017036
:100B60001070022B132B69E0262F30E0215030400B
:100B700081E090E0A0E0B0E004C0880F991FAA1FB8
:100B8000BB1F2A95D2F77C0118C0C701802391238F
:100B9000892B19F4C7E7D1E002C0CFE3D2E081E0AE
:100BA0000E945302CE010E94A70E80E00E945302D1
:100BB000CE010E94A70EF694E794E114F10429F700
:100BC000DF91CF911F910F91FF90EF9008950F93B8
:100BD0001F938C0181E494E067E171E00E9462114F
:100BE00081E494E0B8010E94491280E20E94E60488
:100BF0001EBD0DB407FEFDCF8EB50EBD0DB407FEB4
:100C0000FDCF8EB51EBC0DB407FEFDCF8EB5289A64
:100C100078940E945A051F910F9108956091AF0337
:100C2000662309F494C02091AD023091AE022F5F8B
:100C30003F4F8FE02030380710F020E230E0309353
:100C4000AE022093AD022032310549F48091A70312
:100C50009091A80301969093A8038093A7038FEF28
:100C60009FEF9093AE038093AD03EFEAF2E090E044
:100C70004FEF5FEF7FEF961718F0983F08F47083FF
:100C800081914827842F82958427082E8695869502
:100C90008025082E869580258770042E452F869501
:100CA00007948795502D4827069487955025482707
:100CB0009F5F9E3F01F75093AE034093AD03C90180
:100CC0006FEA72E00E942A051092AF030E945A0553
:100CD00081E494E06DE171E00E9462116091AD02E7
:100CE0007091AE0281E494E00E94431281E494E0AA
:100CF00060E20E945A116091A7037091A80381E4F9
:100D000094E00E94431281E494E060E20E945A1150
:100D10004091A9035091AA036091AB037091AC0379
:100D200081E494E00E947E122091AD023091AE02E7
:100D3000C9018F709070892B51F4C90140962FE042
:100D40008030920710F080E290E00E94E70508955D
:100D50000E946F0E28EE33E040E050E00E94D71270
:100D6000CA01B90108950F931F93CF93DF93EC014C
:100D70008B016B30710540F0CB016AE070E00E949E
:100D8000B012CE010E94B306DE010D900020E9F7FB
:100D90001197AC1BCA0FD11DC8016AE070E00E9418
:100DA000B012805D8883DF91CF911F910F910895DC
:100DB0001F93CF93DF93C6E0D2E08CE1FE01119246
:100DC0008A95E9F7CE0163E271E00E942A02109150
:100DD00004021F71FE0101900020E9F7E750F24084
:100DE000F0E0EC0FFD1F105C10831054CE0165E2A3
:100DF00071E00E941F02CE01612F70E00E94B306D5
:100E00008091040285FF0BC0FE0101900020E9F7EC
:100E1000E750F240F0E0EC0FFD1F8AE2808386E0AD
:100E200092E068E271E00E941F026091050286E094
:100E300092E070E00E94B30686E092E06BE271E01F
:100E40000E941F02E0910402F0E066E0F595E7954C
:100E50006A95E1F7EE0FFF1FE356FE4F6081718147
:100E600086E092E00E94B30686E092E06FE271E0D5
:100E70000E941F028FEF9FEF909323028093220224
:100E8000E4E0F2E0219180912202909123028227F6
:100E9000282F22952827022E269526952025022EDA
:100EA000269520252770082E892F269507942795AB
:100EB000902D8227069427959025822790932302D0
:100EC0008093220282E0E232F807E1F680E290E0CD
:100ED000FC01EC51FE4FE081F999FECF1FBA92BDA3
:100EE00081BDE0BD0FB6F894FA9AF99A0FBE01964B
:100EF0008034910569F70E946904882331F481E404
:100F000094E065E371E00E949111DF91CF911F9110
:100F100008951F93182F89E061E00E94EF0E60E0B2
:100F2000112309F461E089E00E940F0F1F910895D9
:100F30002F923F924F925F926F927F928F929F92E9
:100F4000AF92BF92CF92DF92EF92FF920F931F93D7
:100F5000DF93CF93CDB7DEB764970FB6F894DEBFBB
:100F60000FBECDBF81E494E00E949210882309F463
:100F7000FAC381E494E00E94A610182F80538A30AF
:100F800058F4809169022AE0829FC00111248053A5
:100F9000810F80936902E7C31C3289F490916A0241
:100FA000923450F4E92FF0E0E559FD4F8091690249
:100FB00080839F5F90936A0210926902D4C3812F4D
:100FC00081568A3108F0BDC381E494E068E471E0A1
:100FD0000E9462116091690281E494E070E00E94D5
:100FE000891281E494E0612F0E948111173609F47F
:100FF0004EC0183694F4133609F44EC0143634F447
:10100000113609F46AC01236F1F427C0153609F416
:101010005CC316360CF07AC02EC1123709F489C1B0
:1010200013374CF41B3609F4B8C01C3609F469C0F8
:10103000193649F40BC01437E9F114370CF44DC0DC
:10104000173709F457C30E947F056FC39091690257
:101050009F7180910402807E14C080916902883063
:1010600011F492E005C0893011F091E001C093E0E5
:10107000909369029295990F990F907C8091040248
:101080008F73980F909304020E94D8064EC38091EC
:10109000690280930502F8CF80916902882321F0CC
:1010A00080910402806203C0809104028F7D80934E
:1010B0000402EACF81E68093240282E48093250231
:1010C0001092260280E090E0FC01E95DFD4F8083F4
:1010D000019682349105C1F728C3109324024091F0
:1010E0006A0240932502809169028093260227E2DA
:1010F00032E0EBE6F2E0C901BF0150E00E941602C7
:1011000014C3809169020E9489070FC380E062E0E6
:1011100044ED0E94C90381E00E94890790916D020D
:1011200080E020916C027C01E20EF11CB0906B0219
:10113000C0906902DF2C1B2D1C0D1A5F1E0D1F0DA8
:1011400000E081E090E06DE00E9496058D2D90E03A
:1011500068E00E949605C70168E00E9496058B2D05
:1011600090E068E00E9496058C2D90E068E00E9477
:101170009605812F90E068E00E94960580E090E05F
:1011800061E00E9496056AE070E080E090E00E94D5
:101190007D0E0F5F0330A9F668C080E061E044ED8A
:1011A0000E94C90381E00E94890780916B02E82EAA
:1011B000FF240894E108F10844E0EE0CFF1C4A9576
:1011C000E1F780E096E0E82AF92A80916C029927FD
:1011D00087FD909501978F709070E82AF92A809189
:1011E0006902882321F0A0E0B8E0EA2AFB2AAA24B9
:1011F00039C0C7010C2C02C0959587950A94E2F777
:1012000080FD03C038E8932E02C02EE8922E90E8AD
:10121000B92E00E010E08B2D89210E9453028EE54B
:1012200091E00E94A70EB6940F5F1F4F0830110582
:1012300091F70894C11CD11CBCE0CB16D104C9F6AF
:1012400081E00E9453028EE591E00E94A70E80E0AB
:101250000E94530289E69DE20E94A70EA394E4E057
:10126000AE1619F0CC24DD24C4CF80E00E9489079B
:101270000E9469045AC28091AD029091AE02892BFE
:1012800009F453C281E494E00E94A61097FFFACFBC
:1012900000E210E08DE0E82EF12CEC0EFD1E81E462
:1012A00094E00E94A61097FF40C2C80168EF70E06A
:1012B000A70128E030E00E94F2048D859E858F5FB3
:1012C0009F4F79F181E494E06BE471E00E94621138
:1012D00081E494E0B8010E94431281E494E061E566
:1012E00071E00E9462116D857E8581E494E00E9428
:1012F000431281E494E060E20E945A114F855889BC
:1013000069897A8981E494E00E94571281E494E02B
:1013100060E20E945A116B897C8981E494E00E940A
:1013200049120F5F1F4F2FE00030120709F0B7CFAF
:10133000FCC18091AD029091AE02892B09F4F5C1F8
:1013400090916B0280E0892B19F480916C028111DD
:1013500081E0282E332490916D0280E0892B11F0DA
:1013600031E005C080916E02811181E0382F9091AB
:101370006F0280E0892B11F021E005C080916902A5
:10138000811181E0282F832F90E0A0E0B0E0DC0104
:1013900099278827E22EFF2400E010E0E82AF92AA6
:1013A0000A2B1B2BA0E2CA2ED12CAA24AA94BA2C59
:1013B00088249924F7E06F2E712C6C0E7D1E2E016F
:1013C0000894411C511CC60168EF70E0A30126E09F
:1013D00030E00E94F2042F8138858FEF2F3F3807CD
:1013E000E9F02215330568F02A153B0550F4D201C7
:1013F000F30186E001900D928150E1F7A980BA8057
:1014000046012A153B0551F489859A85AB85BC8533
:10141000E816F9060A071B070CF046010894C11CE0
:10142000D11C90E0C9169FE0D90669F681E494E0EA
:1014300065E571E00E94621181E494E0B4010E94CC
:10144000431281E494E060E20E945A116091AD027F
:101450007091AE0281E494E00E94491281E494E02C
:101460000E94A61097FFFACFC090A703D090A803C0
:10147000F2C081E494E00E94A61097FFF4C00894A3
:10148000811C911CA0E08A16AFE09A0618F0E0E2F9
:101490008E2E912CC40160E070E04FEA52E020E013
:1014A00031E00E94F2048091A7039091A8038F5F1E
:1014B0009F4F09F4D0C0EFEAF2E00FEF1FEF8191E8
:1014C0000827802F82958027082E8695869580256F
:1014D000082E869580258770002E012F869507940B
:1014E0008795102D0827069487951025082723E057
:1014F000EF3AF20721F70115110511F410E077C05A
:1015000081E494E06EE571E00E94621181E494E070
:10151000B4010E94431281E494E060E20E945A11F7
:1015200081E494E0B8010E94491295C081E494E0FE
:101530000E949210882309F065C081E494E065E67A
:1015400071E00E9462116091A7037091A80381E489
:1015500094E00E94431281E494E060E20E945A11F8
:10156000012F0F5FD7018C914091A9035091AA03DD
:101570006091AB037091AC03480F511D611D711D4B
:1015800081E494E00E94571281E494E060E20E94BA
:101590005A111E5FE02FF0E0E155FD4F608181E4BC
:1015A00094E070E00E948912E12FF0E0E155FD4FD8
:1015B000E0801F5FF12E0E2D11C081E494E060E207
:1015C0000E945A11EF2DF0E0E155FD4F6081F39438
:1015D00081E494E070E00E9489120150002369F7D1
:1015E0001E0D81E494E00E946A11183F58F4E12E28
:1015F000FF24EFEAF2E0EE0EFF1ED7018C918F3F41
:1016000009F094CF81E494E068E671E00E946211F1
:1016100081E494E0B4010E94431281E494E060E22A
:101620000E945A116091A7037091A80381E494E08D
:101630000E94431281E494E060E20E945A114091BA
:10164000A9035091AA036091AB037091AC0381E4AC
:1016500094E00E947E128091AD029091AE028816B5
:10166000990609F006CF1092AF030894C11CD11C53
:10167000D092A803C092A70381E494E067E171E0EF
:101680000E9462116091AD027091AE0281E494E01B
:101690000E94431281E494E060E20E945A1160913A
:1016A000A7037091A80381E494E00E94431281E4AF
:1016B00094E060E20E945A110E946F0EAB01BC01DF
:1016C00081E494E00E94381230C08091AD02909184
:1016D000AE02892B51F180916B028B3731F59091DD
:1016E0006C0280E02091690230E0822B932B0E94F3
:1016F000E7051BC08091AD029091AE02892BA9F045
:1017000080916B028C3089F480916902823269F495
:1017100081E494E06EE671E00E94911180E60E94FF
:10172000E604289A78940E945A0510926A02109250
:10173000690282E4EBE6F2E0DF011D928A95E9F7A7
:1017400012C0812F81548A3150F41F71809104029C
:10175000807E810F809304020E94D80604C011325B
:1017600014F00E947F050E946003882309F4BFC023
:10177000F090B3018091B0019091B101892B39F4BF
:1017800081E494E063E771E00E9462110BC081E4A0
:1017900094E067E771E00E946211B4E1BF1510F4B4
:1017A00074E1F72E6091B20181E494E070E00E9450
:1017B000891200E010E010C081E494E060E20E9431
:1017C0005A11F801EC54FE4F608181E494E070E01E
:1017D0000E9489120F5F1F4F0F1570F381E494E090
:1017E0000E946A118091B0019091B101892B09F09A
:1017F0007EC081E00E9489078091AD029091AE0287
:10180000892B09F459C01091B3011E5F8091AF0379
:10181000882351F40E94A8066093A9037093AA0339
:101820008093AB039093AC030E94A806AB01BC016C
:101830008091A9039091AA03A091AB03B091AC034E
:10184000481B590B6A0B7B0B4F3F51056105710516
:101850004CF48091AF0390E00196810F911D893F78
:10186000910580F00E940E060E94A8066093A903CD
:101870007093AA038093AB039093AC0340E050E0D5
:1018800060E070E02091AF03E22FF0E0E155FD4F02
:1018900040832F5F2093AF0330E021553D4F42EB53
:1018A00051E0C901BA01412F50E00E941602809117
:1018B000AF03810F8093AF038091B201807E8032AD
:1018C00099F48091040285FD0FC081E494E06BE7F8
:1018D00071E00E9491118091B2018F71806C60E083
:1018E00070E040E00E94100380E00E948907809130
:1018F00024028823C9F10E943A038823A9F181E0D8
:101900000E94890781E494E063E871E00E9462111B
:101910006091250281E494E070E00E94891281E4E4
:1019200094E068E871E00E94911180912402813670
:1019300011F090E001C090E2909324028091260281
:10194000882329F08F718064892B809324028091F1
:10195000240267E272E0409125020E941003109277
:10196000240280E00E94890764960FB6F894DEBFD7
:101970000FBECDBFCF91DF911F910F91FF90EF90E0
:10198000DF90CF90BF90AF909F908F907F906F909F
:101990005F904F903F902F900895CF92DF92EF92FB
:1019A000FF920F931F93DF93CF9300D0CDB7DEB795
:1019B00081E494E040E051EE60E070E00E94990F15
:1019C00081E494E06BE871E00E9462110E94690476
:1019D0008823A9F0F999FECF80E290E092BD81BD05
:1019E000F89A80B580930402F999FECF81E290E0E5
:1019F00092BD81BDF89A80B58093050208C081E44C
:101A00008093040284ED809305020E94D806289AF0
:101A100088E061E00E94EF0E8FE90E94CC041EBCBA
:101A20000DB407FEFDCF3EB51EBC0DB407FEFDCFC5
:101A30002EB5932F80E0289A789430E0822B932B58
:101A400085549F4109F05FC081E00E94E6041EBCFE
:101A50000DB407FEFDCF8EB5289A78941092A80396
:101A60001092A7038FEF9EE09093AE028093AD0299
:101A700000E210E05FEFE52E5EE0F52E6E010894C7
:101A8000C11CD11CC80168EF70E0A60122E030E063
:101A90000E94F20489819A812FEF8F3F920739F0DB
:101AA00001969093A8038093A703780105C0C8010D
:101AB0000197E816F90631F00F5F1F4F8FE00030F5
:101AC000180701F7F092AE02E092AD0281E494E0D3
:101AD00067E971E00E9462116091AD027091AE02FF
:101AE00081E494E00E94431281E494E060E20E9469
:101AF0005A116091A7037091A80381E494E00E94B9
:101B000049120E940E060E947F050F900F90CF9100
:101B1000DF911F910F91FF90EF90DF90CF9008958C
:101B20000E94B50E0E94CD0C0E949807FDCF823016
:101B300000F5E82FF0E0EE0FFF1FE055FC4F71833A
:101B40006083882319F08130A1F408C08091690076
:101B50008C7F842B80936900E89A089580916900B6
:101B6000440F551F440F551F837F842B80936900BA
:101B7000E99A0895823080F4882319F0813021F4A5
:101B800002C0E89801C0E998E82FF0E0EE0FFF1FCF
:101B9000E055FC4F1182108208951F920F920FB6EC
:101BA0000F9211242F933F934F935F936F937F93E3
:101BB0008F939F93AF93BF93EF93FF938091B00365
:101BC0009091B103892B29F0E091B003F091B1031A
:101BD0000995FF91EF91BF91AF919F918F917F9167
:101BE0006F915F914F913F912F910F900FBE0F908A
:101BF0001F9018951F920F920FB60F9211242F93DA
:101C00003F934F935F936F937F938F939F93AF9384
:101C1000BF93EF93FF938091B2039091B303892B0D
:101C200029F0E091B203F091B3030995FF91EF9190
:101C3000BF91AF919F918F917F916F915F914F91E4
:101C40003F912F910F900FBE0F901F9018951F92EC
:101C50000F920FB60F9211242F933F938F939F9360
:101C6000AF93BF938091B8039091B903A091BA0349
:101C7000B091BB033091BC030196A11DB11D232F70
:101C80002D5F2D3720F02D570196A11DB11D2093FA
:101C9000BC038093B8039093B903A093BA03B093A5
:101CA000BB038091B4039091B503A091B603B091AA
:101CB000B7030196A11DB11D8093B4039093B503A2
:101CC000A093B603B093B703BF91AF919F918F914B
:101CD0003F912F910F900FBE0F901F9018958FB7C7
:101CE000F8942091B8033091B9034091BA03509110
:101CF000BB038FBFB901CA010895EF92FF920F9302
:101D00001F937B018C018FB7F8944091B8035091D9
:101D1000B9036091BA037091BB038FBF2FB7F894DA
:101D20008091B8039091B903A091BA03B091BB031D
:101D30002FBF841B950BA60BB70BE816F9060A07F5
:101D40001B0760F71F910F91FF90EF900895019787
:101D500059F0FC01EE0FFF1FEE0FFF1F32978FB7F8
:101D6000F8943197F1F78FBF0895789484B5826025
:101D700084BD84B5816084BD85B5826085BD85B52F
:101D8000816085BDEEE6F0E0808181608083E1E8DE
:101D9000F0E0808182608083808181608083E0E8E0
:101DA000F0E0808181608083E1EBF0E080818460FD
:101DB0008083E0EBF0E0808181608083EAE7F0E0FF
:101DC0008081846080838081826080838081816063
:101DD00080838081806880831092C1000895282FBD
:101DE00030E0C90182559C4FFC01949126563C4F2E
:101DF000F9018491882391F0E82FF0E0EE0FFF1FA6
:101E0000E458FC4FA591B491662329F48C919095E8
:101E100089238C9308958C91892B8C930895482F56
:101E200050E0CA018E539C4FFC012491CA01825597
:101E30009C4FFC01949146565C4FFA013491332338
:101E4000D1F1222331F1233021F4809180008F776A
:101E500005C0243031F4809180008F7D8093800014
:101E600018C0213019F484B58F7704C0223021F4D2
:101E700084B58F7D84BD0DC0263021F48091B000E3
:101E80008F7705C0273029F48091B0008F7D809333
:101E9000B000E32FF0E0EE0FFF1FEA57FC4FA591D3
:101EA000B491662329F48C91909589238C9308959D
:101EB0008C91892B8C9308951F920F920FB60F92DD
:101EC00011242F933F934F935F936F937F938F933F
:101ED0009F93AF93BF93EF93FF934091C600E09120
:101EE0003D04F0913E04CF01019660E870E00E944D
:101EF000C4129C0180913F04909140042817390737
:101F000039F0E354FC4F408330933E0420933D046A
:101F1000FF91EF91BF91AF919F918F917F916F91C1
:101F20005F914F913F912F910F900FBE0F901F9097
:101F300018955F926F927F928F929F92AF92BF920D
:101F4000CF92DF92EF92FF920F931F93CF93DF9385
:101F5000EC013A014B01413482E458078FE06807F5
:101F600080E078070CF07FC060E874E88EE190E0D4
:101F7000A40193010E94F91221503040404050408A
:101F8000CA01B90122E030E040E050E00E94F912BD
:101F900059016A01A601950120953095409550950B
:101FA00094E0220F331F441F551F9A95D1F760E02C
:101FB00074E284EF90E00E94F912CA01B9012FEF98
:101FC00030E040E050E00E949112A40193010E9491
:101FD000F912C90181509F4F181619061CF4522E90
:101FE0005A9403C055245394521A60E079E08DE36B
:101FF00090E0A40193010E94F9122150304040402A
:102000005040CA01B90122E030E040E050E00E94B7
:10201000F912209530954095509583E0220F331F9B
:10202000441F551F8A95D1F760E074E284EF90E079
:102030000E94F912CA01B9012FEF30E040E050E0F0
:102040000E949112A40193010E94F912C9018150CA
:102050009F4F181619061CF4822F815002C081E090
:10206000821B851500F5E885F98581E090E00A88F6
:1020700002C0880F991F0A94E2F7808360E079E03C
:102080008DE390E0A40193010E94F91221503040A9
:1020900040405040CA01B90122E030E040E050E049
:1020A0000E94F91204C0E885F98510829501EC813F
:1020B000FD813083EE81FF812083EA85FB852081CD
:1020C00041E050E0CA010E8402C0880F991F0A94B3
:1020D000E2F7282B2083EA85FB852081CA010F8443
:1020E00002C0880F991F0A94E2F7282B2083EA8503
:1020F000FB858081088802C0440F551F0A94E2F7CF
:10210000842B8083DF91CF911F910F91FF90EF90EF
:10211000DF90CF90BF90AF909F908F907F906F9007
:102120005F900895DC011296ED91FC911397E058B1
:10213000FF4F8191919180589F4F20813181821B67
:10214000930B60E870E00E94C4120895CF93DF9370
:10215000DC011296ED91FC911397EF01CE57DF4F02
:1021600048815981E058FF4F80819181E058F040CB
:102170008417950719F42FEF3FEF0CC0E40FF51FFC
:102180002081CA01019660E870E00E94C412998320
:10219000888330E0C901DF91CF910895FC01A085CB
:1021A000B18521898C9190E0022E02C0959587958A
:1021B0000A94E2F780FFF6CF0484F585E02D608372
:1021C000089589EA91E090934204809341048DEB55
:1021D00093E0909344048093430485EC90E09093C3
:1021E00046048093450484EC90E0909348048093E7
:1021F000470480EC90E090934A048093490481EC7A
:1022000090E090934C0480934B0486EC90E0909384
:102210004E0480934D0484E080934F0483E08093C8
:10222000500487E08093510485E08093520481E05C
:102230008093530408950F931F93CF93DF938C01E2
:10224000EB0109C02196D801ED91FC910190F0813C
:10225000E02DC801099568816623A1F7DF91CF9130
:102260001F910F910895EF92FF920F931F93CF93B9
:10227000DF938C017B01EA010CC0D7016D917D01D8
:10228000D801ED91FC910190F081E02DC8010995F4
:102290002197209791F7DF91CF911F910F91FF9098
:1022A000EF900895DC01ED91FC910190F081E02D1B
:1022B00009950895DC01ED91FC910190F081E02DEC
:1022C00009950895DC01ED91FC910280F381E02DE8
:1022D000099508950F931F938C01DC01ED91FC91FA
:1022E0000190F081E02D6DE00995D801ED91FC9110
:1022F0000190F081E02DC8016AE009951F910F91CE
:1023000008950F931F938C01DC01ED91FC910190D6
:10231000F081E02D0995C8010E946A111F910F916B
:1023200008950F931F938C010E946211C8010E94AF
:102330006A111F910F9108952F923F924F925F92D1
:102340006F927F928F929F92AF92BF92CF92DF92C5
:10235000EF92FF920F931F93DF93CF93CDB7DEB72A
:10236000A0970FB6F894DEBF0FBECDBF1C016A0167
:102370007B01411551056105710549F4DC01ED91C1
:10238000FC910190F081E02D60E3099554C0882410
:1023900099245401422E55246624772401E010E04C
:1023A0000C0F1D1F080D191DC701B601A3019201D5
:1023B0000E94D712F80160830894811C911CA11C13
:1023C000B11CC701B601A30192010E94D712C90135
:1023D000DA016C017D01C114D104E104F104F1F6CC
:1023E00081E0E82EF12CEC0EFD1EE80CF91C3E01FC
:1023F0000894611C711CD501C4010197A109B109A0
:102400006C01C818D90814C0F601EE0DFF1D6081DB
:102410006A3010F4605D01C0695CD101ED91FC91FE
:102420000190F081E02DC10109950894E108F108BF
:102430006E147F0449F7A0960FB6F894DEBF0FBE66
:10244000CDBFCF91DF911F910F91FF90EF90DF9063
:10245000CF90BF90AF909F908F907F906F905F9044
:102460004F903F902F9008952AE00E949C1108956C
:102470000F931F938C010E943412C8010E946A11AD
:102480001F910F910895AB0160E070E00E9434123B
:1024900008950F931F938C01AB0160E070E00E94E0
:1024A0003412C8010E946A111F910F910895EF9292
:1024B000FF920F931F93CF93DF93EC017A018B016F
:1024C00077FF0FC0E881F9810190F081E02D6DE286
:1024D000099510950095F094E094E11CF11C011D04
:1024E000111DCE01B801A7012AE00E949C11DF91C5
:1024F000CF911F910F91FF90EF9008950F931F932D
:102500008C010E945712C8010E946A111F910F91FD
:102510000895AB01662757FD6095762F0E945712EC
:102520000895629FD001739FF001829FE00DF11D1D
:10253000649FE00DF11D929FF00D839FF00D749F3D
:10254000F00D659FF00D9927729FB00DE11DF91FE9
:10255000639FB00DE11DF91FBD01CF011124089546
:10256000AA1BBB1B51E107C0AA1FBB1FA617B707B9
:1025700010F0A61BB70B881F991F5A95A9F78095D5
:102580009095BC01CD01089597FB092E07260AD02E
:1025900077FD04D0E5DF06D000201AF47095619530
:1025A0007F4F0895F6F7909581959F4F0895A1E28A
:1025B0001A2EAA1BBB1BFD010DC0AA1FBB1FEE1FBD
:1025C000FF1FA217B307E407F50720F0A21BB30B08
:1025D000E40BF50B661F771F881F991F1A9469F784
:1025E00060957095809590959B01AC01BD01CF01E0
:1025F000089597FB092E05260ED057FD04D0D7DF8E
:102600000AD0001C38F450954095309521953F4FE5
:102610004F4F5F4F0895F6F79095809570956195AF
:102620007F4F8F4F9F4F0895EE0FFF1F0590F4913E
:08263000E02D0994F894FFCF9E
:1026380043757272656E7420636F6E666967757232
:102648006174696F6E3A0044462045200044462074
:10265800532000200020690020670020402000202F
:102668004D487A2000636F6E6669672073617665EE
:10267800206661696C6564003E2000206466232042
:1026880000203A2000723A207061676520004446B5
:1026980020433F2000522000444620522000444658
:1026A8002057004F4B2000203F2000202D3E206166
:1026B800636B00202D3E20002062000A5B524631E9
:1026C8003244454D4F5D004446204920003B01B14E
:1026D800016403930300000000CE101B11331100A6
:00000001FF
