:100000000C9462000C948A000C948A000C948A0070
:100010000C948A000C948A000C948A000C948A0038
:100020000C948A000C948A000C948A000C948A0028
:100030000C948A000C948A000C948A000C948A0018
:100040000C940E050C948A000C948A000C948A007F
:100050000C948A000C948A000C948A000C948A00F8
:100060000C948A000C948A000000000024002700F1
:100070002A0000000000250028002B0000000000DE
:1000800023002600290004040404040404040202DA
:100090000202020203030303030301020408102007
:1000A0004080010204081020010204081020000012
:1000B0000007000201000003040600000000000029
:1000C0000000D30411241FBECFEFD8E0DEBFCDBFA8
:1000D00011E0A0E0B1E0ECEEFEE002C005900D9270
:1000E000A231B107D9F711E0A2E1B1E001C01D9240
:1000F000A433B107E1F710E0C4ECD0E004C02297CC
:10010000FE010E943907C23CD107C9F70E940905C8
:100110000C9474070C940000A0E0B0E0E2E9F0E079
:100120000C944D07FE0135966191719180913001DB
:1001300090913101AF010E94A1002096E2E00C9461
:100140006907ABE0B0E0E7EAF0E00C943D073C0162
:100150002B015A01FC0117821682838181FD03C0A5
:100160006FEF7FEFC6C19AE0892E1E010894211C13
:10017000311CF3012381F20123FD859123FF81913D
:100180002F01882309F4B2C1853239F423FD85910A
:1001900023FF81912F01853229F490E0B3010E9461
:1001A0009402E7CF982FFF24EE249924FFE1FF1556
:1001B000D0F09B3269F09C3228F4903259F093329F
:1001C00091F40EC09D3249F0903369F441E024C0AF
:1001D00052E0F52A84E0F82A28C098E0F92A25C0E0
:1001E000E0E1FE2A22C0F7FC29C0892F80538A3023
:1001F00070F4F6FE05C0989C902C1124980E15C042
:10020000E89CE02C1124E80EF0E2FF2A0EC09E329A
:1002100029F4F6FC6BC140E4F42A07C09C3619F4BB
:1002200050E8F52A02C0983649F4F20123FD959171
:1002300023FF91912F01992309F0B8CF892F85547D
:10024000833018F08052833038F444E050E0A40E3C
:10025000B51E5FE359830FC0933631F0933779F0C1
:10026000933509F056C020C0F5018081898342E0B2
:1002700050E0A40EB51E610101E010E012C0F501CE
:10028000C080D180F6FC03C06FEF7FEF02C0692D04
:1002900070E042E050E0A40EB51EC6010E94890243
:1002A0008C015FE7F52214C0F501C080D180F6FC17
:1002B00003C06FEF7FEF02C0692D70E042E050E0B5
:1002C000A40EB51EC6010E947E028C0150E8F52ADC
:1002D000F3FE07C01AC080E290E0B3010E949402CE
:1002E000EA948E2D90E008171907A8F30EC0F601C6
:1002F000F7FC8591F7FE81916F0190E0B3010E94B8
:100300009402E110EA94015010400115110579F7AB
:10031000EAC0943611F0993669F5F7FE08C0F50188
:10032000208131814281538184E090E00AC0F5014F
:10033000808191819C01442737FD4095542F82E0B4
:1003400090E0A80EB91E9FE6F92257FF09C050950C
:100350004095309521953F4F4F4F5F4FE0E8FE2A83
:10036000CA01B901A1012AE030E00E94C002D82EE2
:10037000D21840C0953729F41F2D1F7E2AE030E0A7
:100380001DC01F2D197F9F3661F0903720F49835DE
:1003900009F0ACC00FC0903739F0983709F0A6C00B
:1003A00004C028E030E00AC0106114FD146020E1B0
:1003B00030E004C014FD166020E132E017FF08C0F1
:1003C000F501608171818281938144E050E008C031
:1003D000F50180819181BC0180E090E042E050E035
:1003E000A40EB51EA1010E94C002D82ED2188FE71C
:1003F000F82EF122F6FE0BC05EEFF522D91438F488
:10040000F4FE07C0F2FC05C08FEEF82202C01D2DDD
:1004100001C0192DF4FE0DC0FE01ED0DF11D80810E
:10042000803319F499EEF92208C01F5FF2FE05C06F
:1004300003C08F2D867809F01F5F0F2DF3FC14C0C9
:10044000F0FE0FC01E1510F09D2C0BC09D2C9E0CB5
:10045000911A1E2D06C080E290E0B3010E94940222
:100460001F5F1E15C0F304C01E1510F4E11A01C071
:10047000EE2404FF0FC080E390E0B3010E949402D9
:1004800002FF1DC001FD03C088E790E00EC088E5B3
:1004900090E00BC0802F867891F001FF02C08BE2C4
:1004A00001C080E2F7FC8DE290E0B3010E9494026B
:1004B00006C080E390E0B3010E9494029A94D9149C
:1004C000C0F3DA94F101ED0DF11D808190E0B301EC
:1004D0000E949402DD20A9F706C080E290E0B301FB
:1004E0000E949402EA94EE20C1F743CEF3016681A4
:1004F0007781CB012B96E2E10C945907FC01059022
:10050000615070400110D8F7809590958E0F9F1F15
:100510000895FC016150704001900110D8F780955A
:1005200090958E0F9F1F08950F931F93CF93DF9386
:100530008C01EB018B8181FF1BC082FF0DC02E81DE
:100540003F818C819D812817390764F4E881F98106
:100550000193F983E88306C0E885F985802F099522
:10056000892B31F48E819F8101969F838E8302C0F7
:100570000FEF1FEFC801DF91CF911F910F910895E9
:10058000FA01AA27283051F1203181F1E8946F93C4
:100590006E7F6E5F7F4F8F4F9F4FAF4FB1E03ED06A
:1005A000B4E03CD0670F781F891F9A1FA11D680F08
:1005B000791F8A1F911DA11D6A0F711D811D911D3B
:1005C000A11D20D009F468943F912AE0269F1124B0
:1005D0003019305D3193DEF6CF010895462F477014
:1005E000405D4193B3E00FD0C9F7F6CF462F4F706F
:1005F000405D4A3318F0495D31FD4052419302D0CD
:10060000A9F7EACFB4E0A695979587957795679572
:10061000BA95C9F700976105710508959B01AC0172
:100620000A2E06945795479537952795BA95C9F799
:10063000620F731F841F951FA01D08950F931F93B2
:100640008C01FC01848160E00E94CA0581E090E099
:100650000E946205F801848161E00E94CA0581E080
:1006600090E00E946205F801848160E00E94CA0562
:1006700084E690E00E9462051F910F910895CF9249
:10068000DF92EF92FF920F931F93CF93DF93D82EB9
:10069000C92E282F392FC9018C01C0E0D0E0E62EE9
:1006A000FF24F801858161E00E94AA05B7010C2EA4
:1006B00002C0759567950A94E2F76170F80185812B
:1006C0000E94CA0521960F5F1F4FC830D10549F718
:1006D0008D2D9C2D0E941E03DF91CF911F910F91B4
:1006E000FF90EF90DF90CF900895CF92DF92EF923E
:1006F000FF920F931F93CF93DF93D82EC92E282FED
:10070000392FC9018C01C0E0D0E0E62EFF24F801AA
:10071000858161E00E94AA05B7010C2E02C0759583
:1007200067950A94E2F76170F80185810E94CA0515
:1007300021960F5F1F4FC430D10549F78D2D9C2D99
:100740000E941E03DF91CF911F910F91FF90EF90B8
:10075000DF90CF9008951F93CF93DF93EC01162F76
:100760008A81642F0E94CA058B8160E00E94CA05BD
:100770008D8584FF05C0CE01612F0E943F030EC00E
:10078000612F70E084E0759567958A95E1F7CE0159
:100790000E947503CE01612F0E947503DF91CF91F6
:1007A0001F91089541E00E94AB03089540E00E942C
:1007B000AB030895FC016685862F846086876C6094
:1007C000CF010E94D603089561E00E94D60380ED18
:1007D00097E00E9462050895CF93DF93EC014230C9
:1007E00018F08D8588608D87498B1A8A222329F01D
:1007F000413019F48D8584608D8780E593EC0E94EB
:1008000062058A8160E00E94CA058C8160E00E94D6
:10081000CA058B8160E00E94CA056D8564FD1DC01C
:10082000CE0163E00E94750384E991E10E946205B4
:10083000CE0163E00E94750384E991E10E946205A4
:10084000CE0163E00E94750386E990E00E94620594
:10085000CE0162E00E94750316C06062CE010E9464
:10086000D60384E991E10E9462056D856062CE0144
:100870000E94D60386E990E00E9462056D85606261
:10088000CE010E94D6036D856062CE010E94D60320
:1008900084E08E87CE010E94DA03CE010E94E40339
:1008A00082E08F87CE0166E00E94D603DF91CF9170
:1008B00008956F927F928F92AF92CF92EF920F93A3
:1008C0001F93DF93CF93CDB7DEB73C01162F842F54
:1008D000F301428323830483E582C682A782808654
:1008E0009D8591879E8592879F8593879889948718
:1008F00061E00E94AA05F301838161E00E94AA05DC
:10090000F301848161E00E94AA05112319F0F3012B
:10091000158603C080E1F3018587C30160E141E0F2
:1009200020E00E94EC03CF91DF911F910F91EF9097
:10093000CF90AF908F907F906F9008958F92AF92ED
:10094000CF92EF920F931F93CF93DF93DC01362F5B
:10095000542F722F102FAE2C8C2C8BE091E011961F
:100960009C938E9300D000D0EDB7FEB73196CDB7F3
:10097000DEB71982118212821382CD0161E0432F0A
:100980002FEF052FE72EC12E0E9459040F900F90D4
:100990000F900F90DF91CF911F910F91EF90CF901B
:1009A000AF908F900895CF92EF920F9382E191E0F4
:1009B0006CE04BE025E004E053E0E52E32E0C32E8E
:1009C0000E949E040F91EF90CF9008950F931F9374
:1009D00002E111E0C80162E040E120E00E94EC0386
:1009E00000D000D080E091E0EDB7FEB79283818324
:1009F00083E091E0948383830E948C00BC010F907C
:100A00000F900F900F90C8010E940D071F910F913A
:100A100008950E9470050E94E604FFCF1F920F9276
:100A20000FB60F9211242F933F934F935F936F93C1
:100A30007F938F939F93AF93BF9320912901309120
:100A40002A0140912B0150912C0170912D01DA0166
:100A5000C9010296A11DB11D672F6A5F6D3730F085
:100A60006D57DA01C9010396A11DB11D60932D01D7
:100A70008093290190932A01A0932B01B0932C011C
:100A80008091250190912601A0912701B091280124
:100A90000196A11DB11D8093250190932601A0937D
:100AA0002701B0932801BF91AF919F918F917F91C2
:100AB0006F915F914F913F912F910F900FBE0F90CB
:100AC0001F901895019759F0019749F0FC01EE0F1E
:100AD000FF1F31978FB7F8943197F1F78FBF0895C3
:100AE000789484B5826084BD84B5816084BD85B509
:100AF000826085BD85B5816085BDEEE6F0E08081D0
:100B000081608083E1E8F0E0808182608083808181
:100B100081608083E0E8F0E0808181608083E1EBA8
:100B2000F0E0808184608083E0EBF0E08081816090
:100B30008083EAE7F0E08081846080838081826046
:100B4000808380818160808380818068808310922F
:100B5000C1000895282F30E0C90186569F4FFC013F
:100B600094912A573F4FF9018491882391F0E82FFF
:100B7000F0E0EE0FFF1FE859FF4FA591B4916623F7
:100B800029F48C91909589238C9308958C91892BCD
:100B90008C930895482F50E0CA0182559F4FFC0165
:100BA0002491CA0186569F4FFC0194914A575F4F8A
:100BB000FA0134913323D1F1222331F1233021F48E
:100BC000809180008F7705C0243031F480918000BF
:100BD0008F7D8093800018C0213019F484B58F7701
:100BE00004C0223021F484B58F7D84BD0DC0263031
:100BF00021F48091B0008F7705C0273029F48091CF
:100C0000B0008F7D8093B000E32FF0E0EE0FFF1F68
:100C1000EE58FF4FA591B491662329F48C919095DD
:100C200089238C9308958C91892B8C9308950F932D
:100C30001F93CF93DF938C01EB0109C02196D8015C
:100C4000ED91FC910190F081E02DC801099568813A
:100C50006623A1F7DF91CF911F910F910895EF9235
:100C6000FF920F931F93CF93DF938C017B01EA01D7
:100C70000CC0D7016D917D01D801ED91FC910190DF
:100C8000F081E02DC80109952197209791F7DF9118
:100C9000CF911F910F91FF90EF9008952F923F9267
:100CA0004F925F926F927F928F929F92AF92BF927C
:100CB000CF92DF92EF92FF920F931F93DF93CF9328
:100CC000CDB7DEB7A0970FB6F894DEBF0FBECDBF8D
:100CD0001C016A017B01411551056105710549F44B
:100CE000DC01ED91FC910190F081E02D60E309952C
:100CF00054C0882499245401422E55246624772414
:100D000001E010E00C0F1D1F080D191DC701B601F1
:100D1000A30192010E941507F80160830894811CC9
:100D2000911CA11CB11CC701B601A30192010E9434
:100D30001507C901DA016C017D01C114D104E10478
:100D4000F104F1F681E0E82EF12CEC0EFD1EE80C2A
:100D5000F91C3E010894611C711CD501C401019766
:100D6000A109B1096C01C818D90814C0F601EE0D2B
:100D7000FF1D60816A3010F4605D01C0695CD101C3
:100D8000ED91FC910190F081E02DC101099508944D
:100D9000E108F1086E147F0449F7A0960FB6F894A5
:100DA000DEBF0FBECDBFCF91DF911F910F91FF909E
:100DB000EF90DF90CF90BF90AF909F908F907F90FB
:100DC0006F905F904F903F902F900895EF92FF9219
:100DD0000F931F93CF93DF93EC017A018B0177FF81
:100DE0000FC0E881F9810190F081E02D6DE2099555
:100DF00010950095F094E094E11CF11C011D111D6B
:100E0000CE01B801A7012AE00E944E06DF91CF91E2
:100E10001F910F91FF90EF900895AB01662757FD4A
:100E20006095762F0E94E6060895A1E21A2EAA1B6D
:100E3000BB1BFD010DC0AA1FBB1FEE1FFF1FA2178A
:100E4000B307E407F50720F0A21BB30BE40BF50B87
:100E5000661F771F881F991F1A9469F76095709510
:100E6000809590959B01AC01BD01CF010895EE0FD7
:100E7000FF1F0590F491E02D09942F923F924F921D
:100E80005F926F927F928F929F92AF92BF92CF921A
:100E9000DF92EF92FF920F931F93CF93DF93CDB723
:100EA000DEB7CA1BDB0B0FB6F894DEBF0FBECDBF9B
:100EB00009942A88398848885F846E847D848C846C
:100EC0009B84AA84B984C884DF80EE80FD800C8175
:100ED0001B81AA81B981CE0FD11D0FB6F894DEBF58
:0C0EE0000FBECDBFED010895F894FFCFC8
:100EEC002573006C6F6C0000000000D20317062FF6
:020EFC000600EE
:00000001FF
