:100000000C9462000C948A000C948A000C948A0070
:100010000C948A000C948A000C948A000C948A0038
:100020000C948A000C948A000C948A000C948A0028
:100030000C948A000C948A000C948A000C948A0018
:100040000C94A2030C948A000C948A000C948A00ED
:100050000C948A000C948A000C948A000C948A00F8
:100060000C948A000C948A000000000024002700F1
:100070002A0000000000250028002B0000000000DE
:1000800023002600290004040404040404040202DA
:100090000202020203030303030301020408102007
:1000A0004080010204081020010204081020000012
:1000B0000007000201000003040600000000000029
:1000C0000000700211241FBECFEFD8E0DEBFCDBF0D
:1000D00011E0A0E0B1E0E0E5FDE002C005900D9286
:1000E000AC34B107D9F711E0ACE4B1E001C01D9226
:1000F000AE36B107E1F710E0C4ECD0E004C02297BF
:10010000FE010E94A206C23CD107C9F70E947D03EE
:100110000C94A6060C9400000F931F938C01FC0115
:10012000848160E00E946C0481E090E00E940404FD
:10013000F801848161E00E946C0481E090E00E94FB
:100140000404F801848160E00E946C0484E690E07D
:100150000E9404041F910F910895CF92DF92EF92B5
:10016000FF920F931F93CF93DF93D82EC92E282F82
:10017000392FC9018C01C0E0D0E0E62EFF24F80140
:10018000858161E00E944C04B7010C2E02C0759578
:1001900067950A94E2F76170F80185810E946C040A
:1001A00021960F5F1F4FC830D10549F78D2D9C2D2B
:1001B0000E948C00DF91CF911F910F91FF90EF90E3
:1001C000DF90CF900895CF92DF92EF92FF920F933E
:1001D0001F93CF93DF93D82EC92E282F392FC90113
:1001E0008C01C0E0D0E0E62EFF24F801858161E0BB
:1001F0000E944C04B7010C2E02C0759567950A94B5
:10020000E2F76170F80185810E946C0421960F5F0E
:100210001F4FC430D10549F78D2D9C2D0E948C00B5
:10022000DF91CF911F910F91FF90EF90DF90CF90D2
:1002300008951F93CF93DF93EC01162F8A81642FCB
:100240000E946C048B8160E00E946C048D8584FFA9
:1002500005C0CE01612F0E94AD000EC0612F70E07D
:1002600084E0759567958A95E1F7CE010E94E300D9
:10027000CE01612F0E94E300DF91CF911F9108957D
:1002800041E00E941901089540E00E94190108957B
:10029000FC016685862F846086876C60CF010E9492
:1002A00044010895DF93CF93CDB7DEB728970FB6FB
:1002B000F894DEBF0FBECDBF9C01FE013196A3E4D2
:1002C000B1E088E00D9001928150E1F7F901818958
:1002D000841710F4482F4150E42FF0E0EE0FFF1F79
:1002E000EC0FFD1F8181680F6068C9010E94440105
:1002F00028960FB6F894DEBF0FBECDBFCF91DF9129
:10030000089561E00E94440180ED97E00E9404049A
:100310000895CF93DF93EC01423018F08D8588600B
:100320008D87498B1A8A222329F0413019F48D8553
:1003300084608D8780E593EC0E9404048A8160E0EC
:100340000E946C048C8160E00E946C048B8160E0F0
:100350000E946C046D8564FD1DC0CE0163E00E94A7
:10036000E30084E991E10E940404CE0163E00E946D
:10037000E30084E991E10E940404CE0163E00E945D
:10038000E30086E990E00E940404CE0162E00E944E
:10039000E30016C06062CE010E94440184E991E14D
:1003A0000E9404046D856062CE010E94440186E9CA
:1003B00090E00E9404046D856062CE010E944401B9
:1003C0006D856062CE010E94440184E08E87CE017B
:1003D0000E944801CE010E94810182E08F87CE01F8
:1003E00066E00E944401DF91CF9108956F927F9261
:1003F0008F92AF92CF92EF920F931F93DF93CF9391
:10040000CDB7DEB73C01162F842FF301428323833F
:100410000483E582C682A78280869D8591879E851A
:1004200092879F8593879889948761E00E944C0406
:10043000F301838161E00E944C04F301848161E057
:100440000E944C04112319F0F301158603C080E1CA
:10045000F3018587C30160E141E020E00E9489014A
:10046000CF91DF911F910F91EF90CF90AF908F9030
:100470007F906F9008958F92AF92CF92EF920F93EB
:100480001F93CF93DF93DC01362F542F722F102F41
:10049000AE2C8C2C8DE391E011969C938E9300D022
:1004A00000D0EDB7FEB73196CDB7DEB71982118215
:1004B00012821382CD0161E0432F2FEF052FE72E2B
:1004C000C12E0E94F6010F900F900F900F90DF91B8
:1004D000CF911F910F91EF90CF90AF908F90089593
:1004E000CF92EF920F9382E591E06CE04BE025E034
:1004F00004E053E0E52E32E0C32E0E943B020F9150
:10050000EF90CF90089582E591E060E071E00E9465
:10051000390508950F931F9302E511E0C8016EE0BD
:1005200071E00E9439056091500170915101C8013C
:100530000E940006C80164E171E00E9439056091E3
:10054000360170913701C8010E9400061F910F917A
:100550000895CF93DF9382E591E04BE550E060E0B2
:1005600070E020E030E00E940806C0E0D0E00BC060
:1005700082E591E048E550E060E070E020E030E0A6
:100580000E940806219680914E0190914F01C81754
:10059000D90774F30BC082E591E040E250E060E0DF
:1005A00070E020E030E00E9408062196CE30D105B0
:1005B00094F382E591E04DE550E060E070E020E0EA
:1005C00030E00E940806DF91CF910895AF92BF926C
:1005D000CF92DF92EF92FF920F931F9380E00E94E1
:1005E00084039C0190934D0180934C0180915001B4
:1005F000909151018217930724F430935101209375
:10060000500180913601909137012817390724F461
:10061000309337012093360100D000D0B9018827EC
:1006200077FD8095982F209136013091370144272E
:1006300037FD4095542FE0905001F0905101002774
:10064000F7FC0095102FEEE0AE2EB12CC12CD12C72
:10065000EDB7FEB7A182B282C382D482AA24BB24A2
:1006600065010E94B90470934F0160934E010F9091
:100670000F900F900F9082E591E060E041E00E94C2
:1006800052010E94F60328EE33E040E050E00E9461
:100690004F06DA01C9016BE170E00E943C06039746
:1006A0002CF40E948A020E94830202C00E94A902C6
:1006B00082E591E06BE171E00E9439051F910F9195
:1006C000FF90EF90DF90CF90BF90AF9008950F9381
:1006D0001F9380E061E00E944C0402E511E0C80134
:1006E00060E142E020E00E948901C80165E271E01A
:1006F0000E9439051F910F9108950E9412040E94D3
:1007000067030E94E602FDCF8F70909138019295A9
:10071000990F990F907C982B90937C0080917A0090
:10072000806480937A0080917A0086FDFCCF2091CE
:10073000780040917900942F80E030E0282B392B0D
:10074000C90108951F920F920FB60F9211242F9393
:100750003F934F935F936F937F938F939F93AF9349
:10076000BF932091690130916A0140916B015091D2
:100770006C0170916D01DA01C9010296A11DB11DD4
:10078000672F6A5F6D3730F06D57DA01C901039644
:10079000A11DB11D60936D018093690190936A0161
:1007A000A0936B01B0936C018091650190916601FB
:1007B000A0916701B09168010196A11DB11D8093C0
:1007C000650190936601A0936701B0936801BF91A2
:1007D000AF919F918F917F916F915F914F913F91D9
:1007E0002F910F900FBE0F901F9018958FB7F89410
:1007F0002091690130916A0140916B0150916C0127
:100800008FBFB901CA010895019759F0019749F0C6
:10081000FC01EE0FFF1F31978FB7F8943197F1F776
:100820008FBF0895789484B5826084BD84B581605B
:1008300084BD85B5826085BD85B5816085BDEEE6E8
:10084000F0E0808181608083E1E8F0E08081826077
:100850008083808181608083E0E8F0E08081816036
:100860008083E1EBF0E0808184608083E0EBF0E066
:10087000808181608083EAE7F0E08081846080830A
:1008800080818260808380818160808380818068B4
:1008900080831092C1000895282F30E0C901865648
:1008A0009F4FFC0194912A573F4FF901849188236F
:1008B00091F0E82FF0E0EE0FFF1FE859FF4FA591F0
:1008C000B491662329F48C91909589238C93089593
:1008D0008C91892B8C930895482F50E0CA01825542
:1008E0009F4FFC012491CA0186569F4FFC019491B1
:1008F0004A575F4FFA0134913323D1F1222331F16A
:10090000233021F4809180008F7705C0243031F4AA
:10091000809180008F7D8093800018C0213019F471
:1009200084B58F7704C0223021F484B58F7D84BDD7
:100930000DC0263021F48091B0008F7705C027309C
:1009400029F48091B0008F7D8093B000E32FF0E018
:10095000EE0FFF1FEE58FF4FA591B491662329F4C7
:100960008C91909589238C9308958C91892B8C93ED
:1009700008952F923F924F925F926F927F928F9243
:100980009F92AF92BF92CF92DF92EF92FF920F931E
:100990001F93DF93CF93CDB7DEB73B014C01190115
:1009A0002A016D897E898F89988D6A197B098C0946
:1009B0009D09621A730A840A950AA40193010E9490
:1009C0001D06E218F30804091509A80197010E9401
:1009D00071062A0D3B1D4C1D5D1DB901CA01CF9149
:1009E000DF911F910F91FF90EF90DF90CF90BF901C
:1009F000AF909F908F907F906F905F904F903F90BF
:100A00002F9008950F931F93CF93DF938C01EB01E9
:100A100009C02196D801ED91FC910190F081E02D63
:100A2000C801099568816623A1F7DF91CF911F91D5
:100A30000F910895EF92FF920F931F93CF93DF933F
:100A40008C017B01EA010CC0D7016D917D01D801B9
:100A5000ED91FC910190F081E02DC801099521975D
:100A6000209791F7DF91CF911F910F91FF90EF9019
:100A70000895DC01ED91FC910280F381E02D099550
:100A800008952F923F924F925F926F927F928F9232
:100A90009F92AF92BF92CF92DF92EF92FF920F930D
:100AA0001F93DF93CF93CDB7DEB7A0970FB6F8941F
:100AB000DEBF0FBECDBF1C016A017B014115510590
:100AC0006105710549F4DC01ED91FC910190F08123
:100AD000E02D60E3099554C0882499245401422EE6
:100AE00055246624772401E010E00C0F1D1F080D2B
:100AF000191DC701B601A30192010E944F06F8011A
:100B000060830894811C911CA11CB11CC701B60113
:100B1000A30192010E944F06C901DA016C017D0117
:100B2000C114D104E104F104F1F681E0E82EF12CC6
:100B3000EC0EFD1EE80CF91C3E010894611C711CB2
:100B4000D501C4010197A109B1096C01C818D908E0
:100B500014C0F601EE0DFF1D60816A3010F4605D77
:100B600001C0695CD101ED91FC910190F081E02D13
:100B7000C10109950894E108F1086E147F0449F752
:100B8000A0960FB6F894DEBF0FBECDBFCF91DF9118
:100B90001F910F91FF90EF90DF90CF90BF90AF909B
:100BA0009F908F907F906F905F904F903F902F908D
:100BB0000895EF92FF920F931F93CF93DF93EC0171
:100BC0007A018B0177FF0FC0E881F9810190F081F4
:100BD000E02D6DE2099510950095F094E094E11CEC
:100BE000F11C011D111DCE01B801A7012AE00E94D0
:100BF0004105DF91CF911F910F91FF90EF900895E4
:100C0000AB01662757FD6095762F0E94D9050895A0
:100C1000DC012115310541F4ED91FC910190F08149
:100C2000E02D642F099508952A30310519F40E94AA
:100C3000D90508950E9441050895629FD001739FD0
:100C4000F001829FE00DF11D649FE00DF11D929F68
:100C5000F00D839FF00D749FF00D659FF00D9927A7
:100C6000729FB00DE11DF91F639FB00DE11DF91FCB
:100C7000BD01CF011124089597FB092E07260AD044
:100C800077FD04D049D006D000201AF47095619504
:100C90007F4F0895F6F7909581959F4F0895A1E2B3
:100CA0001A2EAA1BBB1BFD010DC0AA1FBB1FEE1FE6
:100CB000FF1FA217B307E407F50720F0A21BB30B31
:100CC000E40BF50B661F771F881F991F1A9469F7AD
:100CD00060957095809590959B01AC01BD01CF0109
:100CE000089597FB092E05260ED057FD04D0D7DFB7
:100CF0000AD0001C38F450954095309521953F4F0F
:100D00004F4F5F4F0895F6F79095809570956195D8
:100D10007F4F8F4F9F4F0895AA1BBB1B51E107C008
:100D2000AA1FBB1FA617B70710F0A61BB70B881F7B
:100D3000991F5A95A9F780959095BC01CD0108950A
:100D4000EE0FFF1F0590F491E02D0994F894FFCF6A
:100D5000427920416C692052616865656D004D41A2
:100D6000583A2000204D494E3A20002020202020D3
:100D700020202020002D3D4C696768742053656E4B
:100D8000736F723D2D00000401000000004001025D
:0C0D9000051A050000400014005400008B
:00000001FF
